{
  "address": "0xBC6986E47dA74336cc33406A96A30E2945d4751f",
  "abi": [
    {
      "anonymous": false,
      "inputs": [
        {
          "indexed": false,
          "internalType": "uint8",
          "name": "version",
          "type": "uint8"
        }
      ],
      "name": "Initialized",
      "type": "event"
    },
    {
      "anonymous": false,
      "inputs": [
        {
          "indexed": true,
          "internalType": "bytes32",
          "name": "role",
          "type": "bytes32"
        },
        {
          "indexed": true,
          "internalType": "bytes32",
          "name": "previousAdminRole",
          "type": "bytes32"
        },
        {
          "indexed": true,
          "internalType": "bytes32",
          "name": "newAdminRole",
          "type": "bytes32"
        }
      ],
      "name": "RoleAdminChanged",
      "type": "event"
    },
    {
      "anonymous": false,
      "inputs": [
        {
          "indexed": true,
          "internalType": "bytes32",
          "name": "role",
          "type": "bytes32"
        },
        {
          "indexed": true,
          "internalType": "address",
          "name": "account",
          "type": "address"
        },
        {
          "indexed": true,
          "internalType": "address",
          "name": "sender",
          "type": "address"
        }
      ],
      "name": "RoleGranted",
      "type": "event"
    },
    {
      "anonymous": false,
      "inputs": [
        {
          "indexed": true,
          "internalType": "bytes32",
          "name": "role",
          "type": "bytes32"
        },
        {
          "indexed": true,
          "internalType": "address",
          "name": "account",
          "type": "address"
        },
        {
          "indexed": true,
          "internalType": "address",
          "name": "sender",
          "type": "address"
        }
      ],
      "name": "RoleRevoked",
      "type": "event"
    },
    {
      "inputs": [],
      "name": "DEFAULT_ADMIN_ROLE",
      "outputs": [
        {
          "internalType": "bytes32",
          "name": "",
          "type": "bytes32"
        }
      ],
      "stateMutability": "view",
      "type": "function"
    },
    {
      "inputs": [],
      "name": "SIGNER_ROLE",
      "outputs": [
        {
          "internalType": "bytes32",
          "name": "",
          "type": "bytes32"
        }
      ],
      "stateMutability": "view",
      "type": "function"
    },
    {
      "inputs": [],
      "name": "SUPER_ADMIN",
      "outputs": [
        {
          "internalType": "bytes32",
          "name": "",
          "type": "bytes32"
        }
      ],
      "stateMutability": "view",
      "type": "function"
    },
    {
      "inputs": [
        {
          "internalType": "address[]",
          "name": "_targets",
          "type": "address[]"
        },
        {
          "internalType": "bytes[]",
          "name": "_calldata",
          "type": "bytes[]"
        },
        {
          "internalType": "uint256",
          "name": "_nonce",
          "type": "uint256"
        }
      ],
      "name": "execute",
      "outputs": [],
      "stateMutability": "nonpayable",
      "type": "function"
    },
    {
      "inputs": [
        {
          "internalType": "bytes32",
          "name": "role",
          "type": "bytes32"
        }
      ],
      "name": "getRoleAdmin",
      "outputs": [
        {
          "internalType": "bytes32",
          "name": "",
          "type": "bytes32"
        }
      ],
      "stateMutability": "view",
      "type": "function"
    },
    {
      "inputs": [
        {
          "internalType": "bytes32",
          "name": "role",
          "type": "bytes32"
        },
        {
          "internalType": "address",
          "name": "account",
          "type": "address"
        }
      ],
      "name": "grantRole",
      "outputs": [],
      "stateMutability": "nonpayable",
      "type": "function"
    },
    {
      "inputs": [
        {
          "internalType": "address",
          "name": "_signer",
          "type": "address"
        }
      ],
      "name": "grantSigner",
      "outputs": [],
      "stateMutability": "nonpayable",
      "type": "function"
    },
    {
      "inputs": [
        {
          "internalType": "bytes32",
          "name": "role",
          "type": "bytes32"
        },
        {
          "internalType": "address",
          "name": "account",
          "type": "address"
        }
      ],
      "name": "hasRole",
      "outputs": [
        {
          "internalType": "bool",
          "name": "",
          "type": "bool"
        }
      ],
      "stateMutability": "view",
      "type": "function"
    },
    {
      "inputs": [],
      "name": "initialize",
      "outputs": [],
      "stateMutability": "nonpayable",
      "type": "function"
    },
    {
      "inputs": [],
      "name": "nonce",
      "outputs": [
        {
          "internalType": "uint256",
          "name": "",
          "type": "uint256"
        }
      ],
      "stateMutability": "view",
      "type": "function"
    },
    {
      "inputs": [
        {
          "internalType": "bytes32",
          "name": "role",
          "type": "bytes32"
        },
        {
          "internalType": "address",
          "name": "account",
          "type": "address"
        }
      ],
      "name": "renounceRole",
      "outputs": [],
      "stateMutability": "nonpayable",
      "type": "function"
    },
    {
      "inputs": [
        {
          "internalType": "bytes32",
          "name": "role",
          "type": "bytes32"
        },
        {
          "internalType": "address",
          "name": "account",
          "type": "address"
        }
      ],
      "name": "revokeRole",
      "outputs": [],
      "stateMutability": "nonpayable",
      "type": "function"
    },
    {
      "inputs": [
        {
          "internalType": "address",
          "name": "_signer",
          "type": "address"
        }
      ],
      "name": "revokeSigner",
      "outputs": [],
      "stateMutability": "nonpayable",
      "type": "function"
    },
    {
      "inputs": [
        {
          "internalType": "bytes4",
          "name": "interfaceId",
          "type": "bytes4"
        }
      ],
      "name": "supportsInterface",
      "outputs": [
        {
          "internalType": "bool",
          "name": "",
          "type": "bool"
        }
      ],
      "stateMutability": "view",
      "type": "function"
    },
    {
      "inputs": [
        {
          "internalType": "address",
          "name": "_admin",
          "type": "address"
        }
      ],
      "name": "transferSuperAdmin",
      "outputs": [],
      "stateMutability": "nonpayable",
      "type": "function"
    },
    {
      "inputs": [
        {
          "internalType": "address[]",
          "name": "_targets",
          "type": "address[]"
        },
        {
          "internalType": "bytes[]",
          "name": "_calldata",
          "type": "bytes[]"
        },
        {
          "internalType": "uint256",
          "name": "_nonce",
          "type": "uint256"
        }
      ],
      "name": "verifyInputData",
      "outputs": [
        {
          "internalType": "bool",
          "name": "",
          "type": "bool"
        }
      ],
      "stateMutability": "view",
      "type": "function"
    }
  ],
  "transactionHash": "0x454e6cd0f6dcb0565dd080f9fa646200f92b8d085e44a8bf8ba581977c67a740",
  "args": [],
  "numDeployments": 1,
  "solcInputHash": "1a2683de7a26c364cecf5368d2d7deb4",
  "bytecode": "0x608060405234801561001057600080fd5b5061134a806100206000396000f3fe608060405234801561001057600080fd5b50600436106101005760003560e01c80638129fc1c11610097578063affed0e011610066578063affed0e014610256578063b018b7c41461025f578063c34b44a014610272578063d547741f1461028557600080fd5b80638129fc1c146101e657806391d14854146101ee578063a1ebf35d14610227578063a217fddf1461024e57600080fd5b806336568abe116100d357806336568abe146101865780633fde9d5b1461019957806363c724f7146101ac5780637c7c7c3c146101bf57600080fd5b806301ffc9a7146101055780630c6dd9fd1461012d578063248a9ca3146101425780632f2ff15d14610173575b600080fd5b610118610113366004610ec2565b610298565b60405190151581526020015b60405180910390f35b61014061013b366004610f08565b6102cf565b005b610165610150366004610f23565b60009081526065602052604090206001015490565b604051908152602001610124565b610140610181366004610f3c565b6103c3565b610140610194366004610f3c565b6103ed565b6101186101a73660046110bc565b610475565b6101406101ba366004610f08565b61052f565b6101657fd980155b32cf66e6af51e0972d64b9d5efe0e6f237dfaa4bdc83f990dd79e9c881565b6101406105d9565b6101186101fc366004610f3c565b60009182526065602090815260408084206001600160a01b0393909316845291905290205460ff1690565b6101657fe2f4eaae4a9751e85a3e4a7b9587827a877f29914755229b07a7b2da98285f7081565b610165600081565b61016560c95481565b61014061026d3660046110bc565b610775565b610140610280366004610f08565b6107e2565b610140610293366004610f3c565b610888565b60006001600160e01b03198216637965db0b60e01b14806102c957506301ffc9a760e01b6001600160e01b03198316145b92915050565b7fd980155b32cf66e6af51e0972d64b9d5efe0e6f237dfaa4bdc83f990dd79e9c86102f9816108ad565b6001600160a01b0382161580159061031a57506001600160a01b0382163314155b61036b5760405162461bcd60e51b815260206004820152601460248201527f496e76616c6964206e657720677561726469616e00000000000000000000000060448201526064015b60405180910390fd5b6103957fd980155b32cf66e6af51e0972d64b9d5efe0e6f237dfaa4bdc83f990dd79e9c8336103ed565b6103bf7fd980155b32cf66e6af51e0972d64b9d5efe0e6f237dfaa4bdc83f990dd79e9c8836108b7565b5050565b6000828152606560205260409020600101546103de816108ad565b6103e883836108bd565b505050565b6001600160a01b038116331461046b5760405162461bcd60e51b815260206004820152602f60248201527f416363657373436f6e74726f6c3a2063616e206f6e6c792072656e6f756e636560448201527f20726f6c657320666f722073656c6600000000000000000000000000000000006064820152608401610362565b6103bf828261095f565b600082518451146104c85760405162461bcd60e51b815260206004820152600e60248201527f496e76616c6964204c656e6774680000000000000000000000000000000000006044820152606401610362565b8160c95460016104d8919061119b565b146105255760405162461bcd60e51b815260206004820152600d60248201527f496e76616c6964204e6f6e6365000000000000000000000000000000000000006044820152606401610362565b5060019392505050565b7fd980155b32cf66e6af51e0972d64b9d5efe0e6f237dfaa4bdc83f990dd79e9c8610559816108ad565b6001600160a01b0382166105af5760405162461bcd60e51b815260206004820152601a60248201527f5369676e6572206164647265737320697320696e76616c6964210000000000006044820152606401610362565b6103bf7fe2f4eaae4a9751e85a3e4a7b9587827a877f29914755229b07a7b2da98285f70836108b7565b600054610100900460ff16158080156105f95750600054600160ff909116105b806106135750303b158015610613575060005460ff166001145b6106855760405162461bcd60e51b815260206004820152602e60248201527f496e697469616c697a61626c653a20636f6e747261637420697320616c72656160448201527f647920696e697469616c697a65640000000000000000000000000000000000006064820152608401610362565b6000805460ff1916600117905580156106a8576000805461ff0019166101001790555b6106b06109e2565b6106b8610a4f565b6107027fe2f4eaae4a9751e85a3e4a7b9587827a877f29914755229b07a7b2da98285f707fd980155b32cf66e6af51e0972d64b9d5efe0e6f237dfaa4bdc83f990dd79e9c8610ac2565b61072c7fd980155b32cf66e6af51e0972d64b9d5efe0e6f237dfaa4bdc83f990dd79e9c8336108b7565b8015610772576000805461ff0019169055604051600181527f7f26b83ff96e1f2b6a682f133852f6798a09c465da95921460cefb38474024989060200160405180910390a15b50565b7fe2f4eaae4a9751e85a3e4a7b9587827a877f29914755229b07a7b2da98285f7061079f816108ad565b6107a7610b0d565b6107b2848484610475565b506107bd8484610b66565b60c980549060006107cd836111b3565b91905055506107dc6001609755565b50505050565b7fd980155b32cf66e6af51e0972d64b9d5efe0e6f237dfaa4bdc83f990dd79e9c861080c816108ad565b6001600160a01b0382166108625760405162461bcd60e51b815260206004820152601a60248201527f5369676e6572206164647265737320697320696e76616c6964210000000000006044820152606401610362565b6103bf7fe2f4eaae4a9751e85a3e4a7b9587827a877f29914755229b07a7b2da98285f70835b6000828152606560205260409020600101546108a3816108ad565b6103e8838361095f565b6107728133610c20565b6103bf82825b60008281526065602090815260408083206001600160a01b038516845290915290205460ff166103bf5760008281526065602090815260408083206001600160a01b03851684529091529020805460ff1916600117905561091b3390565b6001600160a01b0316816001600160a01b0316837f2f8788117e7eff1d82e926ec794901d17c78024a50270940304540a733656f0d60405160405180910390a45050565b60008281526065602090815260408083206001600160a01b038516845290915290205460ff16156103bf5760008281526065602090815260408083206001600160a01b0385168085529252808320805460ff1916905551339285917ff6391f5c32d9c69d2a47ea670b442974b53935d1edc7fd64eb21e047a839171b9190a45050565b600054610100900460ff16610a4d5760405162461bcd60e51b815260206004820152602b60248201527f496e697469616c697a61626c653a20636f6e7472616374206973206e6f74206960448201526a6e697469616c697a696e6760a81b6064820152608401610362565b565b600054610100900460ff16610aba5760405162461bcd60e51b815260206004820152602b60248201527f496e697469616c697a61626c653a20636f6e7472616374206973206e6f74206960448201526a6e697469616c697a696e6760a81b6064820152608401610362565b610a4d610c95565b600082815260656020526040808220600101805490849055905190918391839186917fbd79b86ffe0ab8e8776151514217cd7cacd52c909f66475c3af44e129f0b00ff9190a4505050565b600260975403610b5f5760405162461bcd60e51b815260206004820152601f60248201527f5265656e7472616e637947756172643a207265656e7472616e742063616c6c006044820152606401610362565b6002609755565b60005b82518110156103e857600080848381518110610b8757610b876111cc565b60200260200101516001600160a01b0316848481518110610baa57610baa6111cc565b6020026020010151604051610bbf919061120e565b6000604051808303816000865af19150503d8060008114610bfc576040519150601f19603f3d011682016040523d82523d6000602084013e610c01565b606091505b5091509150505080610c12906111b3565b9050610b69565b6001609755565b60008281526065602090815260408083206001600160a01b038516845290915290205460ff166103bf57610c5381610d00565b610c5e836020610d12565b604051602001610c6f92919061122a565b60408051601f198184030181529082905262461bcd60e51b8252610362916004016112ab565b600054610100900460ff16610c195760405162461bcd60e51b815260206004820152602b60248201527f496e697469616c697a61626c653a20636f6e7472616374206973206e6f74206960448201526a6e697469616c697a696e6760a81b6064820152608401610362565b60606102c96001600160a01b03831660145b60606000610d218360026112de565b610d2c90600261119b565b67ffffffffffffffff811115610d4457610d44610f68565b6040519080825280601f01601f191660200182016040528015610d6e576020820181803683370190505b509050600360fc1b81600081518110610d8957610d896111cc565b60200101906001600160f81b031916908160001a905350600f60fb1b81600181518110610db857610db86111cc565b60200101906001600160f81b031916908160001a9053506000610ddc8460026112de565b610de790600161119b565b90505b6001811115610e6c577f303132333435363738396162636465660000000000000000000000000000000085600f1660108110610e2857610e286111cc565b1a60f81b828281518110610e3e57610e3e6111cc565b60200101906001600160f81b031916908160001a90535060049490941c93610e65816112fd565b9050610dea565b508315610ebb5760405162461bcd60e51b815260206004820181905260248201527f537472696e67733a20686578206c656e67746820696e73756666696369656e746044820152606401610362565b9392505050565b600060208284031215610ed457600080fd5b81356001600160e01b031981168114610ebb57600080fd5b80356001600160a01b0381168114610f0357600080fd5b919050565b600060208284031215610f1a57600080fd5b610ebb82610eec565b600060208284031215610f3557600080fd5b5035919050565b60008060408385031215610f4f57600080fd5b82359150610f5f60208401610eec565b90509250929050565b634e487b7160e01b600052604160045260246000fd5b604051601f8201601f1916810167ffffffffffffffff81118282101715610fa757610fa7610f68565b604052919050565b600067ffffffffffffffff821115610fc957610fc9610f68565b5060051b60200190565b6000601f8381840112610fe557600080fd5b82356020610ffa610ff583610faf565b610f7e565b82815260059290921b8501810191818101908784111561101957600080fd5b8287015b848110156110b057803567ffffffffffffffff8082111561103e5760008081fd5b818a0191508a603f8301126110535760008081fd5b8582013560408282111561106957611069610f68565b61107a828b01601f19168901610f7e565b92508183528c818386010111156110915760008081fd5b818185018985013750600090820187015284525091830191830161101d565b50979650505050505050565b6000806000606084860312156110d157600080fd5b833567ffffffffffffffff808211156110e957600080fd5b818601915086601f8301126110fd57600080fd5b8135602061110d610ff583610faf565b82815260059290921b8401810191818101908a84111561112c57600080fd5b948201945b838610156111515761114286610eec565b82529482019490820190611131565b9750508701359250508082111561116757600080fd5b5061117486828701610fd3565b925050604084013590509250925092565b634e487b7160e01b600052601160045260246000fd5b600082198211156111ae576111ae611185565b500190565b6000600182016111c5576111c5611185565b5060010190565b634e487b7160e01b600052603260045260246000fd5b60005b838110156111fd5781810151838201526020016111e5565b838111156107dc5750506000910152565b600082516112208184602087016111e2565b9190910192915050565b7f416363657373436f6e74726f6c3a206163636f756e74200000000000000000008152600083516112628160178501602088016111e2565b7f206973206d697373696e6720726f6c6520000000000000000000000000000000601791840191820152835161129f8160288401602088016111e2565b01602801949350505050565b60208152600082518060208401526112ca8160408501602087016111e2565b601f01601f19169190910160400192915050565b60008160001904831182151516156112f8576112f8611185565b500290565b60008161130c5761130c611185565b50600019019056fea2646970667358221220857e5408f9f577ae4332f0d17575c30cb684845567d14f8e6679f159a067d2d064736f6c634300080d0033",
  "devdoc": {
    "kind": "dev",
    "methods": {
      "getRoleAdmin(bytes32)": {
        "details": "Returns the admin role that controls `role`. See {grantRole} and {revokeRole}. To change a role's admin, use {_setRoleAdmin}."
      },
      "grantRole(bytes32,address)": {
        "details": "Grants `role` to `account`. If `account` had not been already granted `role`, emits a {RoleGranted} event. Requirements: - the caller must have ``role``'s admin role. May emit a {RoleGranted} event."
      },
      "hasRole(bytes32,address)": {
        "details": "Returns `true` if `account` has been granted `role`."
      },
      "renounceRole(bytes32,address)": {
        "details": "Revokes `role` from the calling account. Roles are often managed via {grantRole} and {revokeRole}: this function's purpose is to provide a mechanism for accounts to lose their privileges if they are compromised (such as when a trusted device is misplaced). If the calling account had been revoked `role`, emits a {RoleRevoked} event. Requirements: - the caller must be `account`. May emit a {RoleRevoked} event."
      },
      "revokeRole(bytes32,address)": {
        "details": "Revokes `role` from `account`. If `account` had been granted `role`, emits a {RoleRevoked} event. Requirements: - the caller must have ``role``'s admin role. May emit a {RoleRevoked} event."
      },
      "supportsInterface(bytes4)": {
        "details": "See {IERC165-supportsInterface}."
      }
    },
    "version": 1
  },
  "userdoc": {
    "kind": "user",
    "methods": {},
    "version": 1
  },
  "storageLayout": {
    "storage": [
      {
        "astId": 415,
        "contract": "contracts/Receiver.sol:Receiver",
        "label": "_initialized",
        "offset": 0,
        "slot": "0",
        "type": "t_uint8"
      },
      {
        "astId": 418,
        "contract": "contracts/Receiver.sol:Receiver",
        "label": "_initializing",
        "offset": 1,
        "slot": "0",
        "type": "t_bool"
      },
      {
        "astId": 975,
        "contract": "contracts/Receiver.sol:Receiver",
        "label": "__gap",
        "offset": 0,
        "slot": "1",
        "type": "t_array(t_uint256)50_storage"
      },
      {
        "astId": 1708,
        "contract": "contracts/Receiver.sol:Receiver",
        "label": "__gap",
        "offset": 0,
        "slot": "51",
        "type": "t_array(t_uint256)50_storage"
      },
      {
        "astId": 39,
        "contract": "contracts/Receiver.sol:Receiver",
        "label": "_roles",
        "offset": 0,
        "slot": "101",
        "type": "t_mapping(t_bytes32,t_struct(RoleData)34_storage)"
      },
      {
        "astId": 334,
        "contract": "contracts/Receiver.sol:Receiver",
        "label": "__gap",
        "offset": 0,
        "slot": "102",
        "type": "t_array(t_uint256)49_storage"
      },
      {
        "astId": 591,
        "contract": "contracts/Receiver.sol:Receiver",
        "label": "_status",
        "offset": 0,
        "slot": "151",
        "type": "t_uint256"
      },
      {
        "astId": 649,
        "contract": "contracts/Receiver.sol:Receiver",
        "label": "__gap",
        "offset": 0,
        "slot": "152",
        "type": "t_array(t_uint256)49_storage"
      },
      {
        "astId": 3214,
        "contract": "contracts/Receiver.sol:Receiver",
        "label": "nonce",
        "offset": 0,
        "slot": "201",
        "type": "t_uint256"
      }
    ],
    "types": {
      "t_address": {
        "encoding": "inplace",
        "label": "address",
        "numberOfBytes": "20"
      },
      "t_array(t_uint256)49_storage": {
        "base": "t_uint256",
        "encoding": "inplace",
        "label": "uint256[49]",
        "numberOfBytes": "1568"
      },
      "t_array(t_uint256)50_storage": {
        "base": "t_uint256",
        "encoding": "inplace",
        "label": "uint256[50]",
        "numberOfBytes": "1600"
      },
      "t_bool": {
        "encoding": "inplace",
        "label": "bool",
        "numberOfBytes": "1"
      },
      "t_bytes32": {
        "encoding": "inplace",
        "label": "bytes32",
        "numberOfBytes": "32"
      },
      "t_mapping(t_address,t_bool)": {
        "encoding": "mapping",
        "key": "t_address",
        "label": "mapping(address => bool)",
        "numberOfBytes": "32",
        "value": "t_bool"
      },
      "t_mapping(t_bytes32,t_struct(RoleData)34_storage)": {
        "encoding": "mapping",
        "key": "t_bytes32",
        "label": "mapping(bytes32 => struct AccessControlUpgradeable.RoleData)",
        "numberOfBytes": "32",
        "value": "t_struct(RoleData)34_storage"
      },
      "t_struct(RoleData)34_storage": {
        "encoding": "inplace",
        "label": "struct AccessControlUpgradeable.RoleData",
        "members": [
          {
            "astId": 31,
            "contract": "contracts/Receiver.sol:Receiver",
            "label": "members",
            "offset": 0,
            "slot": "0",
            "type": "t_mapping(t_address,t_bool)"
          },
          {
            "astId": 33,
            "contract": "contracts/Receiver.sol:Receiver",
            "label": "adminRole",
            "offset": 0,
            "slot": "1",
            "type": "t_bytes32"
          }
        ],
        "numberOfBytes": "64"
      },
      "t_uint256": {
        "encoding": "inplace",
        "label": "uint256",
        "numberOfBytes": "32"
      },
      "t_uint8": {
        "encoding": "inplace",
        "label": "uint8",
        "numberOfBytes": "1"
      }
    }
  }
}